:02000000D82BFB
:08000800BC08031D08280800D4
:10001000F9300000000000000000000000000000B7
:1000200000000000000000000000000000000000D0
:100030000000FF3E031D0928000000000000000032
:1000400000000000000000000000000000000000B0
:1000500000000000000000000000BC0B08280800A1
:10006000FA30BC000420FA30BC000420FA30BC0096
:100070000420FA30BC000420BB0B302808000130FB
:10008000E8000C1E4128670899000800E501E60118
:10009000E501E6016608803AE7006408803A6702F5
:1000A000031D5428630865020318080083136218AF
:1000B000831761088400E10A0319E20A0008E700D7
:1000C0003F20E50A0319E60A4A28831603178C180D
:1000D0006528831203133E0803178D0003133F089E
:1000E00003178C0083168C130C1583120313BA109C
:1000F0008B1BBA148B135530831603178D00AA304F
:100100008D008C140C1183120313BA188B17BA1CB0
:100110008B130800831603178C188A288312031385
:100120003E0803178D0083168C130C1483120C08E1
:100130000313BF00080083120313981CA128181290
:100140001816BC018C1ABC0A080083120313241869
:100150000614241C0610A4188614A41C8610251846
:100160000615251C0611A5188615A51C861126182E
:100170000816261C0812A6188816A61C881226190E
:100180000817261D0813A6198817A61D88132718F7
:100190000814271C0810A7188814A71C88102719F2
:1001A0000815271D0811A7198815A71D88112803F0
:1001B000031DF0288617BC30BC00042086130230D3
:1001C000BB0030200617BC30BC00042006130230F0
:1001D000BB0030200617BC30BC00042006130929E0
:1001E0002808023A031DFD288616BC30BC000420F6
:1001F00086120130BB00302009292808033A031D6C
:1002000009290616BC30BC00042006120130BB00D0
:10021000302029180716291C0712A9188716A91CAF
:1002200087122A1805142A1C0510AA188514AA1C5E
:1002300085102A1905152A1D0511AA198515AA1D4B
:1002400085112A1A05162A1E0512AA1A8516AA1E33
:1002500085122A1B09142A1F0910AA1B8914AA1F18
:100260008910080083133C1883173B08840080081A
:100270000319462983133C1883173B088400BB0AE3
:100280000319BC0A0008E7003F2032290D30E700BF
:100290003F200A30E7003F20080083120313A40127
:1002A000A501A601A701A801A901AA0108008316BA
:1002B0008717071383123C0883169900A43098000F
:1002C0008312BB0803196729831618156929831639
:1002D0001811B03083129800181218161A08BD00B1
:1002E00008003B08433A031D81293C08313A031DAD
:1002F00081293D08A4000330BE003D08BF006520F1
:100300000D123B08433A031D91293C08323A031D64
:1003100091293D08A5000430BE003D08BF006520BE
:100320000D123B08453A031DA1293C08313A031D33
:10033000A1293D08A6000630BE003D08BF0065208B
:100340000D123B08453A031DB1293C08323A031D02
:10035000B1293D08A7000730BE003D08BF00652059
:100360000D123B08413A031DC1293C08413A031DC7
:10037000C1293D08A8000530BE003D08BF0065202A
:100380000D123B08503A031DD1293C08313A031D98
:10039000D1293D08A9000930BE003D08BF006520F5
:1003A0000D123B08423A031D08003C08583A031D51
:1003B00008003D08AA000830BE003D08BF006520C7
:1003C0000D1208005030BE004130BF004C30C0005C
:1003D0004F30C1004430C2004530C3004D30C4002E
:1003E0005230C500C6010030BD003E30BC00831352
:1003F0003D1883173C0884000230840700308000D9
:100400003C08840003308407663080003C08840088
:10041000043084073B0880003C08840005308407D2
:10042000023080003C08E1003D08E2000830E300B3
:10043000E401462008004130CF004430D20045306E
:10044000D3004C30D0004D30DE004F30D100503062
:10045000CE005230DF005830D400D500D600D7008F
:10046000D800D900DA00DB00DC00DD00E00100305C
:10047000BD004E30BC0083133D1883173C08840038
:10048000023084070A3080003C088400033084076F
:10049000663080003C088400043084073B088000FC
:1004A0003C08840005308407023080000330BE0021
:1004B0008A2083133D1883173C0884000630840784
:1004C0003F0880000430BE008A2083133D18831744
:1004D0003C088400073084073F0880000630BE00D7
:1004E0008A2083133D1883173C0884000830840752
:1004F0003F0880000730BE008A2083133D18831711
:100500003C088400093084073F0880003C088400D0
:100510000A308407003080000930BE008A2083132F
:100520003D1883173C0884000B3084073F08800087
:100530000830BE008A2083133D1883173C088400CE
:100540000C3084073F0880003C0884000D3084078D
:10055000003080003C0884000E30840700308000AA
:100560003C0884000F308407003080003C08E10024
:100570003D08E2001230E300E401462008000130AB
:1005800083120313BB009B20BC08031DC92A64000F
:10059000C32A1A08BC0008000630831603139F0004
:1005A0000610861006118611081288120813881387
:1005B0000810881008118811061286120613861377
:1005C000071287128501091089100711831207117C
:1005D00085018601B9013A100130BB008130BC00B1
:1005E00057214830BD003130BE00BF010030BC0093
:1005F0003D30BB0032214D219B20BC080319FC2A51
:10060000BF223C08B2003208AD002C08003A0319A2
:10061000222B013A03192F2B033A03193C2B013AE1
:100620000319412B073A0319462B013A0319532B9F
:10063000033A0319652B013A0319772B0F3A031973
:10064000A02BD62B3208503A03192A2B3208703AC5
:10065000031D2C2B0130AC003208AD00FC2A3208FF
:10066000413A0319372B3208613A031D3A2B023005
:10067000AC00FC2AAC01FC2A3208AE000330AC000E
:10068000FC2A3208AF000430AC00FC2A3208B0006B
:100690003008663A031D502B0530AC000715FC2AC4
:1006A000AC010711FC2A3208AB002B03031D5A2BA7
:1006B00038145B2B38102B08023A031D612BB81439
:1006C000622BB8100630AC00FC2A3208B3000130AF
:1006D000B10032084D3A0319712B32086D3A031DEF
:1006E000742B0830AC00FC2A0730AC00FC2A31081F
:1006F000023A031D862B3208B5003308BB003408CC
:10070000BC003508BD007121B101952B3103031DDB
:100710008E2B3208B4000230B100952BB108031DB6
:10072000952B3208B3000130B10032084D3A03195D
:100730009D2B32086D3A031DFC2A0830AC00FC2AC0
:100740003208523A0319A82B3208723A031DB52B0E
:10075000A520381CAE2B6430BB00E221B81CB32BA3
:100760006430BB001B22AC01FC2A3108023A031D95
:10077000C42B3208B5003308BB003408BC00350870
:10078000BD007121B101D32B3103031DCC2B3208E5
:10079000B4000230B100D32BB108031DD32B3208B3
:1007A000B3000130B1000730AC00FC2AAC01FC2AD8
:1007B00083120313B101B6010030B7003630A00038
:1007C0003708A100A201A3013810B8108A110A123B
:0207D000CC2A31
:02400E00323F3F
:00000001FF
